:100000000C94ED040C94E3190C94BC190C94B910E5
:100010000C94B9100C94B9100C9415050C94B20BF7
:100020000C9415050C9415050C9415050C94F80FFB
:100030000C9415050C9415050C9415050C941505D8
:100040000C9472190C9415050C9429180C9403182F
:100050000C9415050C9415050C9415050C941505B8
:100060000C94F2130C9415051B0C2B0C3D0C530C2B
:100070005E0C690C780CC70DB60DBB0DC00DC70D1D
:10008000CC0DD10D084AD73B3BCE016E84BCBFFDE1
:10009000C12F3D6C74319ABD56833DDA3D00C77F58
:1000A00011BED9E4BB4C3E916BAAAABE00000080F1
:1000B0003F0053657269616C20636F6D6D206F6BDB
:1000C0002100457865637574652050726F677261B1
:1000D0006D0001B202FFFF0190040923A135016AFE
:1000E000020600016008000000000000000000603F
:1000F00004400000000162020000006004004000B3
:1001000000037B034CCD6C03AB03365676006804CA
:1001100002CB47A202180400058BC1010C040000A9
:100120000000037F060CC92C979797038903264686
:1001300066006C022000024004000000000244043B
:100140000000000002480400000000024C0400000F
:1001500000000250040000000002540400000000EF
:1001600002580400000000025C040000000002BC11
:10017000040000000001EC0400004000037F060CB6
:10018000C92C9797970402030D355D040904872D48
:10019000353D00A3010000000001078601FE074174
:1001A00005F120283038077E01300746019A0747BD
:1001B00004F1283038076C04F128303802160200A8
:1001C00001FB00003E000B003600010002000300AE
:1001D0000000650054FFEF0000FA80000B1282005F
:1001E000010002000000000000000000000000000C
:1001F0000000280000FFFF4581FFFFFA72000000A9
:1002000000000003E80000000100017FFFFFFE8006
:1002100001001B00000000000000000000000000C2
:1002200000003E03304000000002CAE3093E8000A7
:1002300000200000000000000040000000600000FE
:100240000041FF000000000B2A00001655000021AD
:1002500082FD872650FD800000001F000000058001
:100260000000000000000100000002000000030088
:1002700000400000000000046F0002653200005ED4
:10028000C04000000000000000000000000000006E
:1002900000FB8C6F5DFD5D08D9007C733B006C1228
:1002A000CC3200139D3200D0D6320008004000014D
:1002B000F4FFE68079020000000000D0D60000279D
:1002C00010FB0000004000000000000000000000E3
:1002D000000000000100000000000001000100001B
:1002E000000000FA36FFBC308E0005FBF0FFD95B42
:1002F000C8FFD09ABE000010A9FFF41EB200CEBB0A
:10030000F7000000010000000400020002020000EB
:100310000CFFC280000001800000CF800040000080
:1003200000000000010000000000000600000000C6
:1003300014000000000000000000000000000000A9
:1003400000000000000000000000000000000000AD
:10035000000000000000000000000000000000009D
:100360000000000000033F68B6793528BCC67ED186
:100370006C80000000400000000000B26A00000035
:1003800000000000000000000000003FF00000003E
:10039000300000000000000000000000000000002D
:1003A000000000000000000000000000000000004D
:1003B000000000254D002F706D000005AE000C02FE
:1003C000D00000000000650054FFEF0000000000B6
:1003D00000000001000044000000000C00000001CB
:1003E00000000000000065000000540000FFEF0066
:1003F00000000000000000000000000000000000FD
:1004000000400000000000000000000000000000AC
:10041000004000000000000000000000000000009C
:1004200000000000010000000200000000000000C9
:1004300000000000000000000000000000000000BC
:1004400000000000000000000000000000000000AC
:1004500000001B0000000000000000000000000081
:10046000000000000000000000000000000000008C
:10047000000000000000000000000000004000003C
:1004800000001B0000000000000000000000000051
:10049000000000000000000000000000000000005C
:1004A000000000000000000000000000000000004C
:1004B000000000000000000000000000000000003C
:1004C00000D8DCBAA2F1DEB2B8B4A88191F74A90A4
:1004D0007F916AF3F9DBA8F9B0BAA080F2CE81F37C
:1004E000C2F1C1F2C3F3CCA2B280F1C6D880BAA7E0
:1004F000DFDFDFF2A7C3CBC5B6F087A29424487034
:100500003C95406834589B78A2F183922D557DD854
:10051000B1B4B8A1D09180F270F370F27C80A8F1F0
:1005200001B09887D943D886C988BAA1F20EB89786
:1005300080F1A9DFDFDFAADFDFDFF2AAC5CDC7A91F
:100540000CC92C97979797F1A989264666B0B4BA3B
:1005500080ACDEF2CAF1B28C02A9B69800890E1600
:100560001EB8A9B4992C547CB08AA896365676F158
:10057000B9AFB4B083C0B8A89711B18F98B9AFF034
:10058000240844106418F1A329557DAF83B593AFB7
:10059000F0002850F1A3869F61A6DADEDFD9FAA326
:1005A0008696DB31A6D9F8DFBAA68FC2C5C7B28C52
:1005B000C1B8A2DFDFDFA3DFDFDFD8D8F1B8A8B290
:1005C00086B4980D355DB8AA98B0872D353DB2B682
:1005D000BAAF8C96198F9FA70E161EB49AB8AA8729
:1005E0002C547CB9A3DEDFDFA3B180F2C4CDC9F106
:1005F000B8A9B499830D355D89B9A32D557DB593FF
:10060000A30E161EA92C547CB8B4B0F19783A81180
:1006100084A50998A383F0DA240844106418D8F15B
:10062000A529557DA58595021A2E3A565A4048F9B6
:10063000F3A3D9F8F098832408441064189782A88B
:10064000F111F098A2240844106418DAF3DED8837C
:10065000A59401D9A302F1A2C3C5C7D8F18492A27F
:100660004DDA2AD84869D92AD86855DA32D8507173
:10067000D932D8705DDA3AD85879D93AD87893A374
:100680004DDA2AD84869D92AD86855DA32D8507153
:10069000D932D8705DDA3AD85879D93AD878A88A58
:1006A0009AF02850789EF38818F19F1D98A8D908D1
:1006B000D8C89F129EF315A8DA1210D8F1AFC897C8
:1006C0008734B5B994A421F3D922D8F22DF3D92ACD
:1006D000D8F235F3D932D881A4606061D961D86C81
:1006E0006869D969D8747071D971D8B1A384193D7A
:1006F0005DA3831A3E5E931030811011B8B0AF8FA6
:1007000094F2DA3ED8B49AA88729DAF8D8879A35CD
:10071000DAF8D8879A3DDAF8D8B1B9A49885022ECC
:1007200056A581000C14A397B08AF12DD928D84D75
:10073000D948D86DD968D8B1840DDA0ED8A32983E9
:10074000DA2C0ED8A3844983DA2C4C0ED8B8B0A882
:100750008A9AF520AADADFD8A840AAD0DADED8A88B
:1007600060AADAD0DFD8F19786A8319B069907AB4B
:100770009728889BF00C201440B8B0B4A88C9CF04B
:10078000042851791D301438B282ABD0982C5050C7
:1007900078789BF11AB0F08A9CA82951798B29515D
:1007A000798A2470598B2058718A4469388B394072
:1007B000688A6448318B304960A5882009715844A3
:1007C00068113964493019F1AC002C547CF08CA8C4
:1007D00004285078F1889726A85998AC8C022646B0
:1007E00066F0899CA8295179247059446938644875
:1007F00031A98809205970AB11384069A8193148CE
:10080000608CA83C415C207C00F187981986A86E1A
:10081000767EA999882D557D9EB9A38A228A6E8AF3
:10082000568A5E9FB183062646660E2E4E6E9DB892
:10083000AD002C547CF2B18CB499B9A32D557D81B7
:1008400091AC38AD3AB58391AC2DD928D84DD94863
:10085000D86DD968D88C9DAE29D904AED851D904A9
:10086000AED879D904D881F39DAD008DAE1981AD94
:10087000D901D8F2AEDA26D88E912983A7D9ADADA9
:10088000ADADF32AD8D8F1B0AC89913E5E76F3AC29
:100890002E2EF1B18C5A9CAC2C2828289CAC3018F8
:1008A000A8988128343C9724A728343C9C24F2B093
:1008B00089AC912C4C6C8A9B2DD9D8D851D9D8D8D9
:1008C00079D9D8D8F19E88A331DAD8D8912DD928F2
:1008D000D84DD948D86DD968D8B18393353D802596
:1008E000DAD8D88569DAD8D8B49381A328343CF310
:1008F000AB8BF8A391B609B4D9ABDEFAB0879CB93B
:10090000A3DDF1A3A3A3A395F1A3A3A39DF1A3A3A7
:10091000A3A3F2A3B49080F2A3A3A3A3A3A3A3A32E
:10092000A3A3B2A3A3A3A3A3A3B087B599F1A3A341
:10093000A398F1A3A3A3A397A3A3A3A3F39BA3A308
:10094000DCB9A7F1262626D8D8FF36303530206608
:1009500061696C656400363035302073756363659A
:1009600073730000000000240027002A000000002C
:100970000023002600290000000000250028002B8D
:100980000004040404040404040202020202020338
:100990000303030303010204081020408001020442
:1009A00008102001020408102050524F4752414DB8
:1009B0004D494E47004350205245414459202E2E68
:1009C0002E000000000800020100000304070000E0
:1009D000000000000000FB36D13611241FBECFEF0F
:1009E000D8E0DEBFCDBF11E0A0E0B1E0E6E3FCE778
:1009F00002C005900D92AE39B107D9F724E0AEE9F7
:100A0000B1E001C01D92A730B207E1F714E0CCEECF
:100A1000D4E004C02197FE010E94D43BCB3ED10715
:100A2000C9F70E94EC1F0C940E3E0C9400009091AC
:100A3000B5028091B402981750F4E92FF0E0EA541F
:100A4000FD4F208130E09F5F9093B50202C02FEFF1
:100A50003FEFC90108958091B40290E02091B50262
:100A6000821B91090895089580E090E00895E09137
:100A70003D02F0913E023097A9F0808591859C015E
:100A80002D7F2130310531F4228133812F5F3F4F9B
:100A9000338322838B7F892B29F482819381019771
:100AA000938382830895CF92DF92EF92FF920F9308
:100AB0001F93CF93DF937C01262F972F8A0180917C
:100AC000FD02882391F0C62FD72F6E01C40ED51ECC
:100AD000CC15DD0571F06991D701ED91FC91019084
:100AE000F081E02DC7010995F3CF642F822F0E947A
:100AF0002015C801DF91CF911F910F91FF90EF90CA
:100B0000DF90CF900895CF93DF931F92CDB7DEB7DC
:100B100069832091FD022223D1F02091200320320D
:100B200040F021E030E0FC013383228380E090E05C
:100B300015C08091FE02E82FF0E0E150FD4F998151
:100B400090838F5F8093FE028093200305C061E055
:100B5000CE0101960E94201581E090E00F90DF9178
:100B6000CF9108954F925F926F927F928F929F9252
:100B7000AF92BF92CF92DF92EF92FF920F931F93AB
:100B8000CF93DF93CDB7DEB727970FB6F894DEBFCC
:100B90000FBECDBF809135029091360224EFF22E28
:100BA000F9822EE22A83BE016F5F7F4F0E94391FB8
:100BB000882309F45BC165E070E080E090E00E946A
:100BC0002C19009135021091360286EFE82EE98249
:100BD00042E0BE016F5F7F4FC8010E940A1A88235E
:100BE00009F444C1698170E080E090E00E949F3781
:100BF00020E030E040E853E40E94FE374B015C0106
:100C00008A81682F70E080E090E00E949F379B010E
:100C1000AC01C501B4010E945739F801228D338D12
:100C2000448D558D0E945639F80126893789408DAB
:100C3000518D0E94FE374B015C01F80122A133A1C6
:100C400044A155A10E9457399B01AC01F801668D62
:100C5000778D80A191A10E94353A9B01AC01C5011D
:100C6000B4010E9457394B015C0160935B027093A1
:100C70005C0280935D0290935E02809135029091B8
:100C80003602F982FA82BE016F5F7F4F0E94391FE0
:100C9000882309F4EBC06AE170E080E090E00E94F4
:100CA0002C190091350210913602E98243E0BE0111
:100CB0006F5F7F4FC8010E940A1A882309F4D6C0CB
:100CC00020E030E048EC51E4C501B4010E945639FF
:100CD0006B017C019B01AC010E94FE374B015C0162
:100CE000698170E080E090E00E949F3720E030E072
:100CF00040E853E40E94FE372B013C016A8170E01A
:100D000080E090E00E949F379B01AC01C301B201DB
:100D10000E9457392B013C016B8170E080E090E02C
:100D20000E949F3720E030E040E85BE30E94FE37FE
:100D30009B01AC01C301B2010E9457396C837D83D2
:100D40008E839F83F80126A537A540A951A9C50127
:100D5000B4010E94FE372B013C01F80122A533A506
:100D600044A555A5C701B6010E94FE379B01AC0101
:100D7000C301B2010E945739F80126A137A140A54D
:100D800051A50E9457399B01AC016C817D818E81F8
:100D90009F810E9456392B013C01F80122AD33ADF1
:100DA00044AD55ADC501B4010E94FE374B015C0155
:100DB000F80126A937A940AD51ADC701B6010E947F
:100DC000FE379B01AC01C501B4010E945739F801FF
:100DD00022A933A944A955A90E9457399B01AC0106
:100DE000C301B2010E94353A6B017C015801F6E45F
:100DF000AF0EB11C9B01AC010E94FE37F5012081B2
:100E00003181428153810E94FE374B015C01F80120
:100E1000EE5BFF4F2081318142815381C701B601D2
:100E20000E94FE379B01AC01C501B4010E945739F5
:100E3000F801FE9620813181428153810E94573909
:100E400060935702709358028093590290935A020C
:100E500025EC3DE947E75FE30E94353A6093530292
:100E600070935402809355029093560227960FB6C2
:100E7000F894DEBF0FBECDBFDF91CF911F910F91D0
:100E8000FF90EF90DF90CF90BF90AF909F908F90AA
:100E90007F906F905F904F9008954F925F926F9206
:100EA0007F928F929F92AF92BF92CF92DF92EF92FA
:100EB000FF920F931F93CF93DF93CDB7DEB72A979F
:100EC0000FB6F894DEBF0FBECDBF7C010E9466193D
:100ED000D7011C960D911D912D913C911F97AB014F
:100EE000BC01401B510B620B730B1A968D919C91A8
:100EF0001B97092E000CAA0BBB0B84179507A6079E
:100F0000B70708F043C1F7010081118101151105F0
:100F100009F4FEC01A821982812CF5E09F2EABE005
:100F2000CA2ED12CB3E2AB2EB12C8DE1682E712CE0
:100F3000D8011896ED91FC911997908114968C9197
:100F40001497892B80831696ED91FC9117979081C9
:100F500014968C911497809589238083C6010197FC
:100F6000F1F71696ED91FC911797908114968C915C
:100F70001497892B8083C5010197F1F71696ED919F
:100F8000FC911797908114968C91149780958923E2
:100F900080831896ED91FC911997908114968C910D
:100FA0008095892380830E940719DC01CB01805B37
:100FB000994BAF4FBF4FF80186879787A08BB18BB6
:100FC000D8011A96ED91FC911B97908115968C9102
:100FD0008923D9F00E940719F801268537854089B1
:100FE0005189261737074807590750F70EC00E9446
:100FF0000719D8011E962D913D914D915C91519705
:10100000261737074807590788F1D8011A96ED9136
:10101000FC911B97908115968C91892341F30E9436
:101020000719F80124853585DC01CB01820F931F58
:10103000A11DB11D86879787A08BB18BD8011A9609
:10104000ED91FC911B97908115968C91892399F0D5
:101050000E940719D8011E962D913D914D915C91EA
:101060005197261737074807590740F79A94F80110
:10107000648575853EC00E940719F8012485358571
:10108000A9014550510926853785DA01A21BB30B0A
:101090006A0F7B1F6115710549F3811002C080E062
:1010A0001FC0882D282F30E0F9013197EE0FFF1F68
:1010B00041E050E04C0F5D1FE40FF51F408151816E
:1010C0004617570768F4220F331FE1E0F0E0EC0FFA
:1010D000FD1FE20FF31F51834083815019F7DFCFCB
:1010E000FE013196E80FF11DE80FF11D7183608359
:1010F0008394891498F4672F772766956695C301C2
:10110000861B970BBC0180E090E00E942C1910CF49
:101110009FEF8FEFF7019087818738C0892D8E7FF1
:10112000FE01E80FF11D018112810FB6F894DEBFB8
:101130000FBECDBF0E946619D7011C966D937D939B
:101140008D939C931F97C8014C9669E370E00E94B1
:10115000C03B81E090E0012B11F480E090E08B0136
:10116000681779070CF48C010115110561F00E94D4
:101170006619D7011C966D937D938D939C931F9751
:10118000902F812FC7CF03E610E0F1CF2A960FB63C
:10119000F894DEBF0FBECDBFDF91CF911F910F91AD
:1011A000FF90EF90DF90CF90BF90AF909F908F9087
:1011B0007F906F905F904F900895EF92FF920F9302
:1011C0001F93CF93DF9300D0CDB7DEB7142F91E0FC
:1011D0009093FD0280931F031092FE021092200351
:1011E0008EEB93E029833A830E9483052981022FA5
:1011F000E22E3A81F32E8E2D801B811740F4F701E9
:1012000061917F018EEB93E00E948305F4CF0E94F1
:10121000D71A91E0811190E0892F0F900F90DF9104
:10122000CF911F910F91FF90EF900895CF93DF938F
:101230001F92CDB7DEB749839E012F5F3F4F41E03C
:101240000E94DD080F90DF91CF9108952F923F9279
:101250004F925F926F927F928F929F92AF92BF92C6
:10126000CF92DF92EF92FF920F931F93CF93DF9372
:1012700000D000D000D0CDB7DEB7F82EE62E4D83DB
:1012800069010E9466194B015C01312C1E822224E7
:1012900023949D81892F90E09C838B832801612C6E
:1012A000712C4D81341608F052C02092FD02F0924C
:1012B0001F031092FE02109220036E2D8EEB93E01E
:1012C0000E9483050E94D71A2092FD02F0921F030C
:1012D0001092FE02109220036B817C8163197109C8
:1012E0006132710514F060E270E08F2D0E94341BB2
:1012F0009091B4028091B502981719F1011511056A
:1013000099F4F6012E81E20FF11D27FDFA95FA837B
:10131000E9838EEB93E00E941705E981FA818083CF
:101320002E812F5F2E83E4CF0E946619DC01CB0152
:1013300088199909AA09BB0984159505A605B70559
:1013400000F38D81813208F080E2380EAACF0115BA
:101350001105D9F00E946619DC01CB0188199909A1
:10136000AA09BB0920E030E080179107A207B30764
:1013700060F04D81842F90E04E81242F440F330B79
:101380002817390714F42FEF2E838E8126960FB677
:10139000F894DEBF0FBECDBFDF91CF911F910F91AB
:1013A000FF90EF90DF90CF90BF90AF909F908F9085
:1013B0007F906F905F904F903F902F900895BF92D5
:1013C000CF92DF92EF92FF920F931F93CF93DF9311
:1013D0001F92CDB7DEB7F82EE62EC42EB22ED02E39
:1013E00008EE13E09E012F5F3F4F41E00E94260967
:1013F000882321F1EC2DF0E0EB19F109319621E081
:1014000030E002C0220F331FBA94E2F721503109B5
:101410000E2E01C0220F0A94EAF78D2D01C0880F0D
:10142000EA95EAF7422F4095998149232823422BD8
:1014300049836E2D8F2D0E94160901C080E00F9008
:10144000DF91CF911F910F91FF90EF90DF90CF90A0
:10145000BF900895CF92DF92EF92FF920F931F9368
:10146000CF93DF931F92CDB7DEB7F82EE62ED42EA2
:10147000C22E08EE13E09E012F5F3F4F41E00E9415
:1014800026099981CC2041F041E050E001C0440F91
:10149000DA94EAF7492B09C021E030E0A90101C044
:1014A000440FDA94EAF74095492349836E2D8F2D36
:1014B0000E9416090F90DF91CF911F910F91FF901D
:1014C000EF90DF90CF900895462F6EE6FC0180816B
:1014D0000C9416090F931F93442349F09B01FC01C0
:1014E00008EE13E064E780810E94260902C0FB0138
:1014F00010821F910F9108950F931F93CF93DF9345
:10150000EC019C012F5F3F4F08EE13E042E062E7E1
:1015100088810E942609298130E0322F22278A8182
:10152000A901482BCA01DF91CF911F910F91089516
:1015300021E042E06AE6FC0180810C942A0A0F93C4
:101540001F93CF93DF93EC019C012F5F3F4F08EE79
:1015500013E041E06AE388810E9426098981DF91D6
:10156000CF911F910F9108956115710539F4DC0138
:101570001696ED91FC911797608171816436710523
:1015800011F080E0089581E00895DC011696ED9158
:10159000FC911797208131812634310539F02834A8
:1015A000310531F403C02239310549F481E0089551
:1015B000DC01ED91FC913097B1F3C9010994233915
:1015C000310574F42838310589F334F42E55310986
:1015D00022303105A8F4EACF2D38310589F4E6CF61
:1015E0002D3A310519F33CF4263A3105F9F22B3A3C
:1015F000310531F4DBCF215B310923303105B0F205
:1016000080E00895FC0186819781892B09F4089573
:10161000A681B78150968D919C915197009719F0B2
:1016200097838683F5CF0895CF92DF92EF92FF9252
:101630000F931F93CF93DF93EC01EE81FF8106851B
:101640001785C088D188E288F388E114F10491F00D
:10165000C7010E94020BF70186819781892B21F037
:10166000C7010E94140BF7CFEE81FF818289938915
:101670000E948A3C0115110519F0F801D18AC08A2F
:10168000C114D10419F0F601178706878E819F8156
:101690000E948A3C1F830E83DF91CF911F910F918F
:1016A000FF90EF90DF90CF900895FC0186819781A5
:1016B000892B09F40895A681B7811E968D919C917E
:1016C0001F97009719F097838683F5CF0895CF93DE
:1016D000DF93EC0160E08C810E94841861E08E81D0
:1016E000DF91CF910C948418CF93DF93EC01798331
:1016F00068836230710551F06430710571F06130BA
:101700007105A9F4DF91CF910C94670B60E08E8195
:101710000E94841861E08C8106C060E08C810E9488
:10172000841860E08E81DF91CF910C948418DF9152
:10173000CF910895CF93DF93EC01842F7B836A834D
:101740004C835D833F832E8361E00E94B41861E087
:101750008E810E94B41864E070E0CE01DF91CF91D9
:101760000C94740B1F920F920FB60F9211242F93AB
:101770003F934F935F936F937F938F939F93AF9319
:10178000BF93EF93FF93E0915F02F0916002309777
:1017900009F00995FF91EF91BF91AF919F918F91C2
:1017A0007F916F915F914F913F912F910F900FBE5D
:1017B0000F901F90189560910E0270910F02EEE944
:1017C000F1E020E030E026173707A4F44081042E32
:1017D000000C550B3B964817590749F44BE0429FC4
:1017E000C001439F900D112482569E4F08952F5F94
:1017F0003F4FE9CF80E090E00895CF93DF9397FDCE
:101800000BC0EB010E94DB0B2197CC0FDD1FC80F33
:10181000D91F89819A8100C0DF91CF910895FB0182
:10182000EB54F109E730F10508F06CC0DC01EC5C29
:10183000FF4F0C94D43B12968D919C9113970E946C
:10184000DB0BFC01818592859093380280933702EF
:101850000E949E1F0FC012968D919C9113970E941B
:10186000DB0BFC01818592859093380280933702CF
:101870000E94581F0E94113B36C012968D919C9178
:1018800013970E94DB0BFC018185928590933A02AD
:10189000809339020E944D07E0913902F0913A029B
:1018A0002085918530C00E94B205609153027091ED
:1018B0005402809155029091560215C00E94B205C3
:1018C00060915702709158028091590290915A028A
:1018D0000AC00E94B20560915B0270915C02809127
:1018E0005D0290915E020E94A73A262F972F0BC0AF
:1018F00061E070E012968D919C9113970E94FD0B10
:101900000C94F0180895822F08950F931F93CF938E
:10191000DF9397FD0BC08A01EB010E94DB0B21973F
:10192000CC0FDD1FC80FD91F1A830983DF91CF9118
:101930001F910F9108958F929F92AF92BF92CF9275
:10194000DF92EF92FF920F931F93CF93DF937C016F
:10195000009759F0FC0183858F3F21F00E94181EEB
:10196000EC0103C0F701C681D781C7010E942D1F7A
:101970006C01F701208131812239310509F477C0EA
:10198000E4F42E35310509F44BC04CF4263431050E
:1019900009F40EC12834310509F40AC1DEC0283823
:1019A000310509F442C02D38310509F44BC02F35FB
:1019B000310509F0D2C08C2F3FC02D3A310509F412
:1019C000A3C0BCF4263A310509F493C02B3A310583
:1019D00009F0C3C0F701828193810E94DB0BFC01F7
:1019E0008185928590933802809337020E949E1FD2
:1019F00099C0223B310509F498C0233B310509F415
:101A00009FC0213B310509F0A8C00E94B20560913A
:101A10005702709158028091590290915A029AC0CF
:101A20008C2F0E945B186C01C5C061E070E0F7016B
:101A3000828193810E94FD0B0E945B186C01C0E0C3
:101A4000D0E0BAC0F701828193810E94DB0BFC01D8
:101A50008185928590933A02809339020E944D07C6
:101A6000E0913902F0913A020085118576C061E07B
:101A700070E0F701828193810E94FD0B0E945B1848
:101A80006C01F701C281D38162E070E0CE010E9457
:101A9000FD0B8C0164E070E0CE010E94FD0B4C0157
:101AA000C016D10609F471C00E946619092C000CF9
:101AB000AA08BB08DC01CB0188199909AA09BB094E
:101AC00085369105A105B10508F45FC0A60162E065
:101AD00070E0F701828193810E94850C0E94661953
:101AE000AB0164E070E0F701828193810E94850C74
:101AF00061C061E070E0F701828193810E94FD0B7B
:101B00000E94F0188C0129C0F701828193810E9404
:101B1000DB0BFC018185928590933802809337021C
:101B20000E94581F0E94113B15C00E94B20560918F
:101B300053027091540280915502909156020AC04E
:101B40000E94B20560915B0270915C0280915D021F
:101B500090915E020E94A73A8B01F7E0CF16D10464
:101B600038F5F601E55CFF4F0C94D43B91E00C177F
:101B70001D07E1F41AC091E0C017D107BCF015C0F1
:101B800091E00C171D0794F010C0C1E0D0E091E087
:101B90000C171D0751F40AC091E00C171D0734F40F
:101BA00004C091E0C017D1070CF490E0892F06C063
:101BB00081E004C0C1E0D0E08601E9CFDF91CF91A0
:101BC0001F910F91FF90EF90DF90CF90BF90AF905B
:101BD0009F908F900895CF93DF93FC01EB01448198
:101BE00055816081718181E293E00E944915CE01A7
:101BF000DF91CF910C949D1D81E293E00C948315AD
:101C00001F93CF93DF9381E293E00E94A515892B68
:101C1000D1F30E94FC0DEC01182F81E293E00E94A9
:101C2000A515892BD1F30E94FC0D282F1D3F19F417
:101C3000CE01992715C099272D3F91F09E0133279A
:101C400040910C0250910D024227532748275927F3
:101C500050930D0240930C02982F8827820F931FF8
:101C6000DF91CF911F91089580913B0290913C02AA
:101C7000009739F061E00E94CF1A8BE39FE1019752
:101C8000F1F70895CF93DF93A0913B02B0913C020E
:101C9000109779F0ED91FC911197EC014C815D81E9
:101CA000688179810280F381E02DCD01DF91CF91B0
:101CB0000994DF91CF910895CF93DF93EC0188854C
:101CC00099859B878A8785E090E0998788878C85AE
:101CD0009D8521E030E0FC01318320830E94670B69
:101CE00062E070E08E859F85DF91CF910C94740B3C
:101CF000CF93DF93EC01888599859B878A8786E05F
:101D000090E09987888762E070E08C859D850E94CD
:101D1000740B8E859F8521E030E0FC0131832083A8
:101D2000DF91CF910C94670BCF93DF93EC01888503
:101D300099859B878A8782E090E09987888764E00D
:101D400070E08C859D850E94740B64E070E08E8548
:101D50009F85DF91CF910C94740B0895089585EDC4
:101D60008093BC008091BC0084FDFCCF1092FC02EB
:101D700008950895E091B5028091B402E81730F417
:101D8000F0E0EA54FD4F808190E008958FEF9FEFDF
:101D900008950F931F93CF93DF93EC01423018F017
:101DA0008C8188608C834F836887222329F041309F
:101DB00019F48C8184608C8364E670E080E090E0AC
:101DC0000E942C196C8164FD31C0E881F981068480
:101DD000F785E02D42E063E0CE0109950BE416E4BF
:101DE000C8010197F1F7E881F9810684F785E02DB4
:101DF00042E063E0CE010995C8010197F1F7E8815F
:101E0000F9810684F785E02D42E063E0CE01099573
:101E100083E592E00197F1F7E881F9810684F7857F
:101E2000E02D42E062E0CE01099516C06062CE016D
:101E30000E94CF1A8BE496E40197F1F76C816062FF
:101E4000CE010E94CF1A83E592E00197F1F76C81F1
:101E50006062CE010E94CF1A6C816062CE010E9446
:101E6000CF1A84E08D836CE0CE010E94CF1A61E02E
:101E7000CE010E94CF1A8BE39FE10197F1F782E038
:101E80008E8366E0CE010E94CF1AE881F981048436
:101E9000F585E02D6FEFCE01DF91CF911F910F916E
:101EA0000994FC0123812223B9F091819095692343
:101EB0006083828191E09093FD0280931F031092D2
:101EC000FE02109220038EEB93E00E9483050E9495
:101ED000D71A282F30E002C020E030E081E090E007
:101EE000232B11F080E090E00895CF92DF92EF92E3
:101EF000FF92CF93DF93EC01603282E078070CF021
:101F00003DC077FD06C0653B71052CF064EB70E0C9
:101F100002C060E070E0898128E830E06901C81AF9
:101F2000D10887FDD394CC0CDD1CCC0CDD1C0D2C12
:101F3000000CEE08FF088A8128E532E0281B3109F1
:101F400087FD3395220F331F220F331FC901330F33
:101F5000AA0BBB0B9C01AD012C193D094E095F0971
:101F6000DB010E94E63824EB30E040E050E00E94C4
:101F7000BC38C20ED31EE41EF51EB60188818C301B
:101F800080F5998148E850E0491B510997FD539528
:101F9000440F551F440F551F6417750784F09A812D
:101FA00028E532E0291B310997FD3395220F331FB5
:101FB000220F331FAB01261737070CF4A90142503B
:101FC0005109440F551F2FB7F89490E0FC01EE0F14
:101FD000FF1F8E0F9F1FFC01EF5EFD4F5283418359
:101FE0002FBFDF91CF91FF90EF90DF90CF900895BA
:101FF0001F920F920FB60F9211242F933F934F937E
:102000005F936F937F938F939F93AF93BF93EF9360
:10201000FF938091AA0287FF05C01092850010925D
:1020200084001BC02091AA02022E000C330B809169
:10203000100290E02817390784F48091AA02082E34
:10204000000C990BFC01EE0FFF1F8E0F9F1FFC0170
:10205000EF5EFD4F808186FD15C08091AA028F5FE3
:102060008093AA022091AA02022E000C330B8091C9
:10207000100290E028173907C4F48091AA028C302E
:1020800064F113C08091AA02082E000C990BFC0188
:10209000EE0FFF1F8E0F9F1FFC01EF5EFD4F808133
:1020A00060E08F730E948418D8CF80918400909153
:1020B0008500049680349C4918F480E49CE905C0AE
:1020C000809184009091850004969093890080937C
:1020D00088008FEF8093AA023BC02091840030914A
:1020E00085008091AA02082E000C990BFC01EE0FCE
:1020F000FF1F8E0F9F1FFC01EF5EFD4F81819281BC
:10210000820F931F90938900809388008091AA0288
:10211000082E000C990BFC01EE0FFF1F8E0F9F1F66
:10212000FC01EF5EFD4F808186FF12C08091AA0204
:10213000082E000C990BFC01EE0FFF1F8E0F9F1F46
:10214000FC01EF5EFD4F808161E08F730E94841877
:10215000FF91EF91BF91AF919F918F917F916F917F
:102160005F914F913F912F910F900FBE0F901F9055
:1021700018951F920F920FB60F9211240F900FBE59
:102180000F901F9018952F923F924F925F926F92EF
:102190007F928F929F92AF92BF92CF92DF92EF92F7
:1021A000FF920F931F93CF93DF93CDB7DEB768975E
:1021B0000FB6F894DEBF0FBECDBF8C01DC011396C5
:1021C0001C9213978D919C910E94980A57E0E52EDE
:1021D000F12CF801838181FD2DC0B1E0EB1AF108EB
:1021E000F80169F4EB59FF4F1082118212821382B9
:1021F0006FE070E080E090E00E942C191BC08081AD
:1022000091810E949F0AD80113968C9313978D9108
:102210009C910E947C0AF80190878783238124FD8A
:1022200003C081159440A8F2D8018D919C910E9421
:10223000980ACFCFD80113968C9181FF03C245E154
:10224000E42EF12CD80117962D913C9118971596F4
:102250008D919C9116972817390770F4F8018081A9
:1022600091810E947C0AD80118969C938E931797AF
:10227000B1E0EB1AF108F9F44801E9E08E0E911C87
:10228000D80115964C911597B4018D919C910E949F
:102290006A0AF8018781908525813681821B930B1C
:1022A000908787830190F081E02D8114910451F48F
:1022B0008080918007C065E070E080E090E00E943F
:1022C0002C19C0CFF401A480B12CBA2CAA2485818A
:1022D000A82AC084D12CDC2CCC248185C82AE48493
:1022E000F12CFE2CEE248585E82A608170E0762FA3
:1022F00066278181682B072E000C880B990B0E94A2
:102300009F3720E030E040E858E30E94FE372B0181
:102310003C011801F9E42F0E311CD1016D937D931E
:102320008D939C931397B501BB0C880B990B0E945E
:102330009F3720E030E040E858E30E94FE374B0131
:102340005C01F1016483758386839783B601DD0C9C
:10235000880B990B0E949F3720E030E040E858E35B
:102360000E94FE3769837A838B839C83D101189600
:102370006D937D938D939C931B97B701FF0C880BF6
:10238000990B0E949F3720E030E040E858E30E941C
:10239000FE376D837E838F839887F101648775870D
:1023A000868797879B01AC01C501B4010E94FE3767
:1023B0006B017C0129813A814B815C81C301B201AF
:1023C0000E94FE379B01AC01C701B6010E9456393D
:1023D0009B01AC010E94573969877A878B879C875C
:1023E0001801F9E52F0E311CD1016D937D938D936A
:1023F0009C931397A5019401C301B2010E94FE377B
:102400006B017C012D813E814F81588569817A81E4
:102410008B819C810E94FE379B01AC01C701B601F4
:102420000E9457399B01AC010E9457396D877E8706
:102430008F87988BF1016483758386839783A301CB
:102440009201C301B2010E94FE376B017C01A5011C
:102450009401C501B4010E94FE379B01AC01C70184
:10246000B6010E9456396B017C0129813A814B816A
:102470005C81CA01B9010E94FE379B01AC01C70112
:10248000B6010E9456396B017C012D813E814F813E
:102490005885CA01B9010E94FE379B01AC01C701F2
:1024A000B6010E9457396B017C01D10118966D93DA
:1024B0007D938D939C931B97A3019201C301B2015D
:1024C0000E945739698B7A8B8B8B9C8BA501940169
:1024D000C501B4010E9457396D8B7E8B8F8B988F0D
:1024E000A301920169897A898B899C890E94FE37B0
:1024F0002B013C01A50194016D897E898F89988DFE
:102500000E94FE379B01AC01C301B2010E94573902
:1025100020E030E040E85FE30E9456392B013C01A7
:1025200029813A814B815C816D897E898F89988D63
:102530000E94FE374B015C012D813E814F81588501
:1025400069897A898B899C890E94FE379B01AC013D
:10255000C501B4010E945639A30192010E94D639E7
:102560004B015C01A7019601C701B6010E94FE372D
:102570006B017C012D853E854F855889CA01B901C3
:102580000E94FE37A70196010E9457390E943B3BEB
:102590009B01AC0169857A858B859C850E94353AC3
:1025A0000E94063A2B013C0129853A854B855C85C2
:1025B000CA01B9010E94FE37A70196010E9457394E
:1025C0000E943B3B9B01AC016D857E858F85988980
:1025D0000E94353A0E94063A6B017C011801B5E66B
:1025E0002B0E311C20EE3EE245E652E4C501B4015B
:1025F0000E94FE37F10160837183828393835801C7
:10260000F9E6AF0EB11C20EE3EE245E652E4C3010E
:10261000B2010E94FE37D5016D937D938D939C93FB
:1026200013975801BDE6AB0EB11C20EE3EE245E625
:1026300052E4C701B6010E94FE37F5016083718341
:1026400082839383D8018D919C9168960FB6F894FC
:10265000DEBF0FBECDBFDF91CF911F910F91FF90D5
:10266000EF90DF90CF90BF90AF909F908F907F9032
:102670006F905F904F903F902F900C94980A8F929C
:102680009F92AF92BF92CF92DF92EF92FF920F9301
:102690001F93CF93DF934A015B016801790120E02A
:1026A00030E0A901C501B4010E94983787FF09C035
:1026B00020E030E044EB53E4C501B4010E945739F7
:1026C00002C0C501B4010E94A73AEB0120E030E04E
:1026D000A901C701B6010E94983787FF09C020E011
:1026E00030E044EB53E4C701B6010E94573902C001
:1026F000C701B6010E94A73ACE01861B970BBC0109
:102700008D549F4F87369140A0F09B012856314051
:10271000C90168E671E00E94C03B40E35DEF649F41
:10272000C001659F900D749F900D1124B901680F31
:10273000791FCB01DF91CF911F910F91FF90EF9007
:10274000DF90CF90BF90AF909F908F9008958F9221
:102750009F92AF92BF92CF92DF92EF92FF920F9330
:102760001F93CF93DF93EC010E947F1B86E0C82E5E
:10277000D12C7E0181E8E80EF11CF7018080918068
:10278000A280B380CE010E947F1BF1E0CF1AD10856
:10279000B9F0F70140815181628173819501840113
:1027A000CE010E943F13181619061CF404972CF74B
:1027B00007C022273327281B390B24303105ECF6BC
:1027C000F7016081718182819381DF91CF911F91A7
:1027D0000F91FF90EF90DF90CF90BF90AF909F90C0
:1027E0008F9008951F920F920FB60F9211242F937E
:1027F0003F934F935F936F937F938F939F93AF9389
:10280000BF93EF93FF938091B900887F803609F4DE
:102810009CC068F5883209F45BC090F4803109F4FB
:1028200054C038F4882309F4F6C0883009F44DC048
:10283000F6C0883109F44CC0803209F45DC0EFC0A5
:10284000803409F468C048F4803309F455C08833F3
:1028500009F0E5C08093FA02D8C0803509F44FC072
:10286000883509F45DC0883409F0D9C0D6C08839EC
:1028700009F4C7C0A8F4883709F467C038F488366B
:1028800009F463C0803709F460C0C9C0883809F40E
:10289000B8C0803909F45FC0803809F0C0C05BC09F
:1028A000803B09F486C038F4803A09F466C0883A5F
:1028B00009F47FC0B4C0803C09F4A7C0883C09F487
:1028C000A4C0883B09F48AC0AAC08091D70210C076
:1028D0009091F9028091F802981770F5E091F90251
:1028E00081E08E0F8093F902F0E0E852FD4F808185
:1028F0008093BB0085EC86C08093FA028EC0E09185
:10290000F90281E08E0F8093F9028091BB00F0E024
:10291000E852FD4F80839091F9028091F8026EC0D9
:10292000E091F90281E08E0F8093F9028091BB0063
:10293000F0E0E852FD4F80838091FB0281116DC071
:1029400081E08093D60284EA61C083E08093FC0238
:102950001092A702CFCF8091A702803208F051C019
:10296000E091A70281E08E0F8093A7028091BB00C7
:10297000F0E0E957FD4F8083BDCF85EC8093BC002C
:102980001092FC028091A702803230F4E091A702FD
:10299000F0E0E957FD4F10826091A70270E0E091EE
:1029A0008502F091860287E892E009951092A702CD
:1029B00036C084E08093FC0210928402109283025D
:1029C000E0918102F0918202099580918302811148
:1029D00005C081E08093830210926102E09184023D
:1029E00081E08E0F80938402F0E0EF59FD4F8081EB
:1029F0008093BB009091840280918302981708F421
:102A000079CF85E88093BC000AC085EC8093BC0038
:102A10001092FC0204C01092FA020E94AF0EFF91C5
:102A2000EF91BF91AF919F918F917F916F915F9146
:102A30004F913F912F910F900FBE0F901F901895BF
:102A400040918302262F30E0240F311D21323105C1
:102A5000DCF42091FC022430C9F4FC0180E090E019
:102A6000861758F4309183022191DC01AF59BD4F94
:102A7000A30FB11D2C930196F3CF80918302680FB1
:102A80006093830280E0089581E0089582E00895D4
:102A90000895CF92DF92EF92FF920F931F93CF93FF
:102AA000DF936C017A018B01C0E0D0E0CE15DF0529
:102AB00089F0D8016D918D01D601ED91FC910190C5
:102AC000F081E02DC6010995892B11F47E0102C029
:102AD0002196ECCFC701DF91CF911F910F91FF900D
:102AE000EF90DF90CF900895FC01538D448D252FFA
:102AF00030E0842F90E0821B930B541710F0CF9698
:102B0000089501970895FC01918D828D981761F0C9
:102B1000828DDF01A80FB11D5D968C91928D9F5F14
:102B20009F73928F90E008958FEF9FEF0895FC01BF
:102B3000918D828D981731F0828DE80FF11D858D72
:102B400090E008958FEF9FEF0895FC01918D228D05
:102B5000892F90E0805C9F4F821B91098F7399278A
:102B6000089581E293E00E94A51521E0892B09F4E4
:102B700020E0822F0895FC01848DDF01A80FB11D94
:102B8000A35ABF4F2C91848D90E001968F739927A3
:102B9000848FA689B7892C93A089B1898C91806490
:102BA0008C93938D848D981306C00288F389E02D51
:102BB00080818F7D80830895EF92FF920F931F9302
:102BC000CF93DF93EC0181E0888F9B8D8C8D9813E0
:102BD00005C0E889F989808185FD24C0F62E0B8D1A
:102BE00010E00F5F1F4F0F731127E02E8C8DE8123E
:102BF0000CC00FB607FCFACFE889F989808185FF00
:102C0000F5CFCE010E94BB15F1CF8B8DFE01E80FF1
:102C1000F11DE35AFF4FF0820B8FEA89FB89808117
:102C2000806207C0EE89FF896083E889F989808125
:102C30008064808381E090E0DF91CF911F910F91BC
:102C4000FF90EF900895CF93DF93EC01888D882358
:102C5000C9F0EA89FB89808185FD05C0A889B98909
:102C60008C9186FD0FC00FB607FCF5CF808185FFE4
:102C7000F2CFA889B9898C9185FFEDCFCE010E9452
:102C8000BB15E7CFDF91CF91089580E090E0892BCD
:102C900029F00E94B11581110C9400000895833031
:102CA00081F028F4813099F08230A1F008958730C6
:102CB000A9F08830B9F08430D1F4809180008F7D04
:102CC00003C0809180008F7780938000089584B541
:102CD0008F7702C084B58F7D84BD08958091B00048
:102CE0008F7703C08091B0008F7D8093B0000895EE
:102CF000089521E001C0220F6A95EAF7DC011C96D5
:102D00002C931C971A965C934E931997ED91FC9116
:102D10000484F585E02D60E00994DC01ED91FC91DF
:102D20000684F785E02D41E0099581E090E0089563
:102D30000E94EC3D0F931F93CF93DF93EC018881AA
:102D40009981009729F02A813B812617370788F45B
:102D50008B016F5F7F4F0E94223D009761F0998346
:102D600088831B830A832C813D81232B11F4FC0172
:102D7000108281E001C080E0DF91CF911F910F911F
:102D80000895CF93DF93EC0188819981009711F02A
:102D90000E948A3C198218821D821C821B821A8220
:102DA000DF91CF910895EF92FF920F931F93CF93EE
:102DB000DF93EC017B018A01BA010E949A1681110E
:102DC00004C0CE010E94C11607C01D830C83B70149
:102DD000888199810E94073ECE01DF91CF911F919A
:102DE0000F91FF90EF900895EF92FF920F931F9332
:102DF000CF938C01FC01759684E0C0E060FF02C0B7
:102E00009081C92B6695815031968111F7CF413061
:102E100011F4F8014489F8018585C82BC42B780189
:102E2000FEE0EF0EF11CF80162896C2BC7010E94D5
:102E3000510FF801628960956C23C701CF911F91F2
:102E40000F91FF90EF900C94510F0F931F93CF931E
:102E5000DF93062F0F70423019F440E0602F10C04E
:102E6000142F262FEC0130E0B90184E075956795A9
:102E70008A95E1F7CE010E94F416412F602FCE0112
:102E8000DF91CF911F910F910C94F416FC01848572
:102E90008823A9F0218532852115310519F46111A6
:102EA00006C007C02130310521F4611102C08587B9
:102EB00001C015866585CF010E960C94510F0895BB
:102EC000FF920F931F93CF93DF93EC01162F042FE4
:102ED000F22E8B85888B0E94771D61E088890E9485
:102EE000341B91E0811101C090E0998B8EEB93E04F
:102EF0000E9417058E878989882339F01F861C82D6
:102F000060E0CE010E960E94510F2F2D402F612FB1
:102F1000CE01DF91CF911F910F91FF900C94C90EBC
:102F2000EF92FF920F931F93CF93DF93EC018B01EE
:102F30006115710551F0CB010E945A377C01BC012B
:102F4000CE010E949A16811104C0CE010E94C116C2
:102F500007C0FD82EC82B801888199810E945337B5
:102F6000CE01DF91CF911F910F91FF90EF900895C7
:102F7000CF93DF93EC016115710559F0FB010190CE
:102F80000020E9F73197AF01461B570B0E94D3167B
:102F900002C00E94C116CE01DF91CF910895FC01BD
:102FA000808191810C948A3CFB01DC0111961C927A
:102FB0001E9213961C921E92129715961C921E92A8
:102FC00014978617970749F0608171816115710523
:102FD00021F0448155810C94D3160895FC0111828F
:102FE000108213821282158214826115710551F0CC
:102FF000FB0101900020E9F73197AF01461B570B09
:103000000C94D31608951F920F920FB60F921124AD
:103010002F933F934F935F936F937F938F939F93E0
:10302000AF93BF93EF93FF9381E293E00E94BB15B0
:10303000FF91EF91BF91AF919F918F917F916F9190
:103040005F914F913F912F910F900FBE0F901F9066
:1030500018951F920F920FB60F9211242F938F93F2
:103060009F93EF93FF93E0913103F09132038081BE
:10307000E0913703F091380382FD12C09081809176
:103080003A038F5F8F7320913B03821751F0E091D9
:103090003A03F0E0EF5DFC4F958F80933A0301C057
:1030A0008081FF91EF919F918F912F910F900FBE93
:1030B0000F901F901895CF93DF93282F30E0F901E0
:1030C000EE53F64F8491F901EB56F64FD491F90186
:1030D000EF57F64FC491CC2391F081110E944F1607
:1030E000EC2FF0E0EE0FFF1FE359F64FA591B491DE
:1030F000EC91ED2381E090E021F480E002C080E0DB
:1031000090E0DF91CF9108951F93CF93DF93282F05
:1031100030E0F901EE53F64F8491F901EB56F64F8A
:10312000D491F901EF57F64FC491CC23C9F0162F73
:1031300081110E944F16EC2FF0E0EE0FFF1FE958AF
:10314000F64FA591B4918FB7F894111105C09C91D9
:10315000ED2FE095E92302C0EC91ED2BEC938FBFAE
:10316000DF91CF911F910895CF93DF9390E0FC0101
:10317000EB56F64F2491FC01EF57F64F84918823CC
:1031800061F190E0880F991FFC01ED59F64FC59150
:10319000D491FC01E958F64FA591B491611109C091
:1031A0009FB7F8948881209582238883EC912E2301
:1031B0000BC0623061F49FB7F8943881822F8095FC
:1031C00083238883EC912E2B2C939FBF06C08FB74F
:1031D000F894E8812E2B28838FBFDF91CF9108953B
:1031E0008E3008F08E508770806480937C008091D0
:1031F0007A00806480937A0080917A0086FDFCCF0B
:10320000809178002091790090E0922B08953FB74B
:10321000F8948091B0029091B102A091B202B09165
:10322000B30226B5A89B05C02F3F19F00196A11D3A
:10323000B11D3FBFBA2FA92F982F8827820F911D4C
:10324000A11DB11DBC01CD0142E0660F771F881F93
:10325000991F4A95D1F708958F929F92AF92BF928E
:10326000CF92DF92EF92FF926B017C010E940719CF
:103270004B015C01C114D104E104F104F1F00E949E
:103280000719DC01CB0188199909AA09BB09883EF5
:103290009340A105B10570F321E0C21AD108E108FD
:1032A000F10888EE880E83E0981EA11CB11CC114A1
:1032B000D104E104F10419F7DDCFFF90EF90DF9026
:1032C000CF90BF90AF909F908F9008952FB7F894B4
:1032D0006091AC027091AD028091AE029091AF020C
:1032E0002FBF08951F920F920FB60F9211242F93A4
:1032F0003F938F939F93AF93BF938091AC02909134
:10330000AD02A091AE02B091AF023091AB0223E0CA
:10331000230F2D3720F40196A11DB11D05C026E80D
:10332000230F0296A11DB11D2093AB028093AC0226
:103330009093AD02A093AE02B093AF028091B00221
:103340009091B102A091B202B091B3020196A11D79
:10335000B11D8093B0029093B102A093B202B093DA
:10336000B302BF91AF919F918F913F912F910F9099
:103370000FBE0F901F9018951F920F920FB60F92CD
:1033800011242F933F934F935F936F937F938F936A
:103390009F93AF93BF93EF93FF93E0910201F0915E
:1033A00003010995FF91EF91BF91AF919F918F918B
:1033B0007F916F915F914F913F912F910F900FBE31
:1033C0000F901F9018951F920F920FB60F92112415
:1033D0002F933F934F935F936F937F938F939F931D
:1033E000AF93BF93EF93FF93E0910001F091010140
:1033F0000995FF91EF91BF91AF919F918F917F912F
:103400006F915F914F913F912F910F900FBE0F9051
:103410001F901895EF92FF920F931F93CF93DF9316
:103420008C017B01D42F81E08093FD0287E780939C
:103430001F031092FE0210922003FB0160818EEBAD
:1034400093E00E9483050E94D71AF801E65BFF4FC4
:103450008083811124C00D2F0D2E000C110B6D2FB8
:1034600087E70E94341B8091B40290E02091B5025E
:10347000821B910980179107E9F7C0E0CD176CF422
:1034800087010C0F111DC7FD1A958EEB93E00E946A
:103490001705F8018083CF5FF1CF81E001C080E0A4
:1034A000DF91CF911F910F91FF90EF9008950F93AF
:1034B0001F93CF93DF9300D0CDB7DEB78A01698326
:1034C00042E0BE016F5F7F4F0E940A1A882359F0C5
:1034D000898190E0982F88272A81822BF801918397
:1034E000808381E003C0F801118210820F900F9059
:1034F000DF91CF911F910F9108958F929F92AF927C
:10350000BF92CF92DF92EF92FF920F931F93CF93D0
:10351000DC011796CC911797662311F08C2F01C010
:1035200080E018962C91189730E0220F331F235912
:10353000364F40E050E0BA01F90105911491F801CD
:1035400090819C23981315C06A017B019FEFC91AD3
:10355000D90AE90AF90A1D968D909D90AD90BC900C
:103560005097481559056A057B0538F4B701A6013F
:10357000E3CF342F252FCB0104C030E020E080E0E2
:1035800090E0632F722FCF911F910F91FF90EF90DA
:10359000DF90CF90BF90AF909F908F900895DC0107
:1035A000ED91FC910684F785E02D40E0099420918F
:1035B000200390911F03213208F04AC08091FC0241
:1035C0008111FCCF32E03093FC0231E03093FB02FA
:1035D0003FEF3093FA021092F9022093F802AFEF16
:1035E000B2E048ED52E0FA013E2F341B321718F4D6
:1035F0003D913193F9CF1092D7022091D702990FC4
:10360000922B9093D7029091D602913061F4109250
:10361000D6029091D7029093BB009091BC0093FD8D
:10362000F8CF95EC01C095EE9093BC009091FC0210
:103630009230E1F39091FA029F3F79F08091FA0283
:10364000803241F08091FA02803331F084E005C08D
:1036500081E003C082E001C083E01092FE0210927C
:1036600020031092FD0208959091FC029111FCCF6D
:10367000613208F060E291E09093FC029093FB02CB
:103680002FEF2093FA021092F902260F2093F802EE
:103690009093D7029091D702880F892B8093D702FD
:1036A0008091D602813061F41092D6028091D702C7
:1036B0008093BB008091BC0083FDF8CF85EC01C0F6
:1036C00085EE8093BC008091FC028130E1F3809113
:1036D000F902861710F46091F902A8EDB2E026EB2A
:1036E00032E0F9018E2F821B861718F48D91819399
:1036F000F9CF1092B5026093B402862F08958F928D
:103700009F92AF92BF92EF92FF920F931F93CF932E
:10371000DF93EC018C0103581F4FF80111821082D6
:103720008B599F4F7C01F801808191819C012F5F13
:103730003F4F318320830697B4F0CF57DF4FF70117
:1037400080819181A281B38188839983AA83BB837D
:10375000DF91CF911F910F91FF90EF90BF90AF90AD
:103760009F908F90089565E070E080E090E00E9467
:103770002C198A81882319F0CE010E94C310F70109
:1037800080809180A280B38020E030E044E353E465
:10379000C501B4010E949837882329F220E030E067
:1037A000A901C501B4010E949837882309F4BBCF51
:1037B000C4CF009769F0FC0101900020E9F7319730
:1037C000AF01481B590BBC0181E293E00C944915F1
:1037D00080E090E00895E0912103F09122030190B0
:1037E000F081E02D682F81E293E009948F929F92FF
:1037F000AF92BF920F931F93CF93DF93CDB7DEB7F6
:10380000A1970FB6F894DEBF0FBECDBF19A242300C
:1038100008F44AE08E010F5D1F4F842E912CA12CDD
:10382000B12CA50194010E942539E62FB901CA01E6
:1038300001501109EA3014F4E05D01C0E95CD801DF
:10384000EC93232B242B252B61F7C8010E94D91B55
:10385000A1960FB6F894DEBF0FBECDBFDF91CF911A
:103860001F910F91BF90AF909F908F900895CF932D
:10387000DF93EA0191E09093FD0280931F03109281
:10388000FE02109220038EEB93E00E948305698173
:103890008EEB93E00E94830568818EEB93E00E949B
:1038A00083050E94D71A91E0811190E0892FDF9162
:1038B000CF9108952F923F924F925F926F927F9295
:1038C0008F929F92AF92BF92CF92DF92EF92FF9230
:1038D0000F931F93CF93DF9300D000D0CDB7DEB707
:1038E0006C017A8369834A01222E0C83422F4F7127
:1038F0006DE6DC018C910E9416096C81C6010E9464
:10390000640A80E190E00E94F53B2C01EE2039F042
:1039100080E190E00E94F53B8B83392E02C01B8230
:10392000312CA12CB12CA814B90408F074C0C50125
:1039300040968816990618F4F82CFA1802C080E10F
:10394000F82E8F2D90E020E031E0BC812B1B310957
:103950002817390714F4FB2EF194E981FA81EA0D56
:10396000FB1DEE2059F09B81A92FB32D8A2F891BB7
:103970008F1530F484918D933196F8CFEB833F2EE1
:103980002B81332D4F2D6FE6F60180810E94DD08DB
:103990006F2C712C4114510431F1422D4F716DE6A1
:1039A000D6018C910E9416096C81C6010E94640A9E
:1039B00008EE13E092014F2D6FE6F60180810E9420
:1039C0002609A301B2018B81932D0E94F13D892B21
:1039D00051F0C2010E948A3CEE2039F18B81932D77
:1039E0000E948A3C22C0A60CB71CFC81FF0DFC8300
:1039F000A814B90408F097CFF11101C02394422D07
:103A00004F716DE6D6018C910E9416096C81C6013A
:103A10000E94640A88CFC2010E948A3CEE2039F0DD
:103A20008B81932D0E948A3C02C080E001C081E01E
:103A30000F900F900F900F90DF91CF911F910F91EA
:103A4000FF90EF90DF90CF90BF90AF909F908F90BE
:103A50007F906F905F904F903F902F900895EF92DE
:103A6000FF920F931F93CF93DF931F92CDB7DEB7D3
:103A70007A0189019E012F5F3F4F41E00E94260994
:103A8000882339F029812E7730E035952795F70185
:103A900020830F90DF91CF911F910F91FF90EF90B6
:103AA00008950F931F93CF93DF938C01C0E0D0E074
:103AB000F801EC0FFD1F6491662371F0E091210382
:103AC000F09122030190F081E02D81E293E00995CD
:103AD000892B11F02196ECCF84E791E00E94D91B4D
:103AE0008C0F9D1FDF91CF911F910F910895109220
:103AF000B5021092B4021092FE02109220031092AE
:103B0000FC0281E08093FB021092D60261E082E128
:103B10000E94841861E083E10E948418E9EBF0E0E0
:103B200080818E7F808380818D7F808388E48093F5
:103B3000B80085E48093BC000895CF92DF92EF92A5
:103B4000FF92CF93DF936C01990FEE08FF08F7FE09
:103B500012C08DE20E94EB1BEC0166277727CB0198
:103B60006C197D098E099F094AE00E94F61B7C01B1
:103B7000EC0EFD1E06C04AE0C701B6010E94F61B0E
:103B80007C0184E791E00E94D91B8E0D9F1DDF917F
:103B9000CF91FF90EF90DF90CF9008958091E60352
:103BA0009091E7038A30910578F49C012150310906
:103BB0003093E7032093E603880F991FFC01E0533D
:103BC000FC4F2281338102C020E030E07091D003AD
:103BD0006091D1038091E6039091E703DC01AA0F85
:103BE000BB1F40E050E021153105C9F0425051099A
:103BF0008A30910548F09093E7038093E603309371
:103C0000D1032093D00308950197FA01EA0FFB1F17
:103C1000E053FC4F722F632F24813581E4CF9093C2
:103C2000E7038093E6037093D0036093D103089574
:103C30008B3494F0E091FF03F09100043097A1F0F1
:103C4000682F880F770BA091D003B091D1031696FF
:103C50008D919C9117970994E82FEE0FFF0BE85177
:103C6000FC4F80819181089580E090E008958F92CB
:103C70009F92AF92BF92CF92DF92EF92FF920F93FB
:103C80001F93CF93DF93CDB7DEB7C054D1400FB6AB
:103C9000F894DEBF0FBECDBF8C010E946619F801FB
:103CA000C184D284E384F4849B01AC012C193D09C6
:103CB0004E095F0969017A0130EDC31637E0D3067A
:103CC000E104F10410F48189B4C0F80161877287BE
:103CD000838794871482138212821182108261E09A
:103CE00085810E9484186AEF70E080E090E00E9475
:103CF0002C1961E0F80185810E94B41860E0F80198
:103D000085810E94841864E170E080E090E00E9468
:103D10002C19F89461E0F80185810E9484188BE9E0
:103D200090E00197F1F762E0F80185810E94B418F4
:103D300083E290E00197F1F760E0C8010E947D1AEC
:103D4000672B682B692B21F4F801118A789442C003
:103D500061E0C8010E947D1A672B682B692BA1F3D3
:103D60009E012F5F3F4F79015E013FEBA31A3EEFAB
:103D7000B30A670160E0C8010E947D1AF601608302
:103D800071838283938361E0C8010E947D1AF601EA
:103D90006483758386839783F8E0CF0ED11CCA14A1
:103DA000DB0441F7789420E030E0F7014081518155
:103DB0006281738184809580A680B780411551050A
:103DC0006105710529F081149104A104B10421F465
:103DD000F801118A80E02DC0F90183E0F595E7959F
:103DE0008A95E1F7E00FF11F8081880F481559058A
:103DF0006A057B0508F4816080832F5F3F4FF8E000
:103E0000EF0EF11C2832310581F6F801248130E0F3
:103E10004081818190E0840F911D4281840F911D2A
:103E20004381840F911D99272817390789F681E06E
:103E3000818BC05CDE4F0FB6F894DEBF0FBECDBFE6
:103E4000DF91CF911F910F91FF90EF90DF90CF9076
:103E5000BF90AF909F908F900895FC01892B41F007
:103E600082858F3F11F00C94181E848195810895EE
:103E70000895CF93DF93EC0181E08093FD0287E703
:103E800080931F031092FE021092200342E050E044
:103E90008EEB93E00E9453050E94D71A982FC65BC1
:103EA000DF4F888381E0911180E0DF91CF91089509
:103EB000CF92DF92EF92FF92CF93DF93EC010E94BB
:103EC000371E882381F18E818B3031F160F185516D
:103ED000823048F5688170E080E090E00E949D3774
:103EE00020E030E040E853E40E94FE376B017C01A3
:103EF0008981682F70E080E090E00E949F379B01ED
:103F0000AC01C701B6010E9457392DEC3CEC4CECDA
:103F10005DE30E94FE370BC0688170E080E090E0B6
:103F20000E949D3704C060E070E080EC9FE7DF9165
:103F3000CF91FF90EF90DF90CF900895CF92DF92D6
:103F4000EF92FF921F93CF93DF93EC010E94371EF5
:103F50008823B1F18E818B3029F090F18551823028
:103F600040F02EC06A8170E080E090E00E949D37B2
:103F70002BC01A81612F6F7770E080E090E00E9483
:103F80009F3720E030E040E853E40E94FE376B01A9
:103F90007C018B81682F70E080E090E00E949F3769
:103FA0009B01AC01C701B6010E9457392DEC3CECD6
:103FB0004CEC5DE30E94FE3717FF06C0905804C02A
:103FC00060E070E080EC9FE7DF91CF911F91FF9060
:103FD000EF90DF90CF900895CF93DF93CDB7DEB70A
:103FE000C45BD1090FB6F894DEBF0FBECDBF789485
:103FF00084B5826084BD84B5816084BD85B58260EE
:1040000085BD85B5816085BD80916E00816080939E
:104010006E00109281008091810082608093810007
:104020008091810081608093810080918000816017
:10403000809380008091B10084608093B100809172
:10404000B00081608093B00080917A00846080939A
:104050007A0080917A00826080937A0080917A0061
:10406000816080937A0080917A00806880937A00E2
:104070001092C100E0913103F091320382E080831D
:10408000E0912D03F0912E031082E0912F03F09127
:1040900030038FEC808310923903E0913503F09167
:1040A000360386E08083E0913303F091340380810E
:1040B00080618083E0913303F091340380818860D4
:1040C0008083E0913303F0913403808180688083A2
:1040D000E0913303F091340380818F7D808382EB04
:1040E00090E00E94511D8BE99CE09093FE03809329
:1040F000FD038FE09CE0909300048093FF0321E890
:1041000030E02C0F3D1F2D5F3F4FCE54DF4F3983E2
:104110002883C25BD04020914D0230914E028091A5
:104120004B0290914C022817390769F10E94340E16
:1041300080914B0290914C02009759F0019719F52C
:104140001A8219821C821B821E821D8269EA79E012
:104150000EC060ED77E080E090E00E942C191A829A
:1041600019821C821B821E821D8265EB79E0CE01C2
:1041700001960E949017CE0101960E94420ECE0138
:1041800001960E94CF1780914B0290914C02909320
:104190004E0280934D020E94FC0D809308018F3FD8
:1041A00031F481E293E00E948315809308018091AD
:1041B00008018E37B1F18F3FA1F1082E000C990B49
:1041C0000E949D1D60910801062E000C770B6B5A12
:1041D0007E4FCE0101960E94EE17CE0101960E94FD
:1041E000420ECE0101960E94CF17809108018033C4
:1041F00091F08133B1F481E08093070181E090E098
:1042000090934C0280934B0264EF71E080E090E069
:104210000E942C1906C01092070110924C021092B5
:104220004B0280914B0290914C02019711F00C943B
:1042300098326AE571E08AEC93E00E94B8177090BA
:1042400007017720D9F18FEF9FEF909306018093BC
:10425000050181E08093040166E771E0CE010196DB
:104260000E94EE1710920F0210920E020E94661921
:104270006B01770FEE08FF0862E581E293E00E9490
:10428000DC1562E370E080E090E00E942C1981E28E
:1042900093E00E94A515892B11F00C949C320E948A
:1042A0006619DC01CB018C199D09AE09BF0988385C
:1042B0009341A105B10500F30C949C3266E771E0CF
:1042C000CE018F569F4F0E94EE178091FC038823EA
:1042D00011F40C947B32D0900401DD2009F4D5C098
:1042E0008091FC03882309F499C08091D0039091B8
:1042F000D1030E94C50A882309F473C0A091D0039A
:10430000B091D103E091FD03F091FE0316968D91DB
:104310009C91179709954091D0035091D103DA01F0
:10432000882359F116962D913C911797F901A2898E
:10433000B38916968D919C911797892B09F451C0DA
:104340008091E6039091E70301969093E7038093B1
:10435000E603880F991FFC01E053FC4F538342830F
:10436000DA0113963C932E93129715961C921E9287
:104370001497F901828993892EC01696ED91FC91CC
:10438000179784899589009709F44AC0DC0116962D
:104390008D919C911797892B09F442C08091E60377
:1043A0009091E70301969093E7038093E603880FCB
:1043B000991F80539C4FDC0113965C934E93129788
:1043C000DA011396FC93EE93129715961C921E92A7
:1043D0001497848995899093D1038093D0030E9488
:1043E000550B8091D0039091D1030E94C50AE091B2
:1043F000D003F091D103882311F40C94D533A68116
:10440000B78152960D90BC91A02D16968D919C91DE
:104410001797892B09F064CF0C94D533E0E0F0E0D6
:10442000F0934A02E09349023097C9F1008111816B
:104430006FE571E0CE0101960E94EE17B801CE0142
:1044400001960E94EB0DCE0101960E94CF17E091DC
:104450004902F0914A02208031801092040180913B
:104460000501909106012816390629F0109248029C
:104470001092470217C0809147029091480201961E
:1044800090934802809347020DC020900501309020
:104490000601C101C497029728F40C94DA33E2E0D4
:1044A0002E2E312C8091490290914A020E942D1F9C
:1044B0007C01E0914902F0914A023097A1F0838596
:1044C0008F3F49F00E94181ECC55DF4F9983888397
:1044D000C45AD04008C026813781CC55DF4F39837C
:1044E0002883C45AD04037FE02C00C94F93133E817
:1044F0002316310411F40C94372F0CF09BC09EE668
:104500002916310411F40C94022D0CF04EC0B5E3C1
:104510002B16310411F40C94132C04F5F2E32F162E
:10452000310409F4A2C164F432E02316310411F01D
:104530000C94F9310E94CE1D1092FC030C94F931B9
:1045400083E32816310411F40C94E22A94E329162B
:10455000310411F40C943D2B0C94F931A7E32A1685
:10456000310411F40C94B52C14F40C94792CECE374
:104570002E16310411F40C94BC2CFDE32F163104DB
:1045800011F00C94F931E0914902F0914A028281D4
:1045900093810E94DB0BFC018185928590934602FA
:1045A00080934502B7010C94FF2C2AE722163104B0
:1045B00011F40C940B2E14F580E72816310411F435
:1045C0000C945C2D14F40C94312DA8E72A163104B8
:1045D00011F40C94BB2DB9E72B16310411F00C9497
:1045E000F931E0914902F0914A0260857185CE016E
:1045F0008F569F4F0E94B8170C94E32EECE72E16AF
:10460000310411F40C94562E14F40C940E2E2DE754
:104610002216310411F40C94F32E32E823163104DF
:1046200011F00C94F9310091490210914A0261E0B5
:104630000C941D3185EA2816310411F40C941831BC
:104640000CF069C0A6E92A16310411F40C94E92F84
:104650000CF04AC0E7E82E16310411F40C9418311E
:104660009CF424E82216310411F00C94F931E09105
:104670004902F0914A0261E070E0828193810E94D8
:10468000FD0B60E00C94BB313CE82316310411F4BF
:104690000C94432F81E92816310411F00C94F93160
:1046A0000091490210914A0260E0D80114968C9161
:1046B0000E94B418F8014481558161E070E0828164
:1046C00093810E94850C40E050E062E070E0D801E8
:1046D00012968D919C9113970E94850C40E050E0BA
:1046E00064E070E00C94763098E92916310411F4F6
:1046F0000C94A23014F40C948530B9E92B163104D3
:1047000011F40C94C730EAE92E16310411F40C941C
:10471000EF300C94F931FAEC2F16310411F40C94AB
:10472000B9310CF07EC030EB2316310411F40C9437
:104730002F310CF067C09AEA2916310411F00C945D
:10474000F931E0904902F0904A02F70182819381A9
:104750000E94DB0B6C0182E190E00E94F53B8C0132
:10476000D70116962C91169714968D919C911597BA
:10477000F801858326839927FC01EB56F64FE491D7
:10478000D8011796EC931797FC01EF57F64FE49179
:104790001896EC9380E89EE3A0E0B0E0F8018587EE
:1047A0009687A787B08B1093380200933702D60103
:1047B0001A961C930E931997F7014481558161E075
:1047C00070E0828193810E94850CD70116964D91ED
:1047D0005C91179762E070E012968D919C9113970F
:1047E0000E94850C62E0F80185810E94B41880E384
:1047F00098EFAFEFBFEFF80181879287A387B48767
:104800000C94F931A8EC2A16310411F40C94B4314B
:10481000B9EC2B16310411F00C94F93160E00C94D2
:10482000B531E6EE2E16310411F40C94BE314CF481
:104830002BEC2216310411F00C94F93160E00C9449
:10484000BA3137EE2316310411F40C94CE318AEFCD
:104850002816310411F00C94F931B701FF0C880BC4
:10486000990B0E942C190C94F93180914702909178
:104870004802E0904902F0904A02D701009799F46B
:1048800014964D915C91159761E070E012968D91B0
:104890009C9113970E94850CF7014681578162E035
:1048A00070E00C947730019799F414964D915C91D7
:1048B000159763E070E012968D919C9113970E947A
:1048C000850CF7014681578164E070E00C947730E5
:1048D00012968D919C9113970E94DB0B8C0182E1C3
:1048E00090E00E94F53BC056DF4F99838883C05A01
:1048F000D040FC01138212828AE090E09583848389
:10490000F0933E02E0933D02D8011A96FC93EE9399
:104910001997F7010480F581E02DC655DF4FF98323
:10492000E883CA5AD040D70112960D911C91139773
:1049300064E070E0C8010E94FD0B6C0163E070E070
:10494000C8010E94FD0B7C0162E070E0C8010E947A
:10495000FD0B5C0161E070E0C8010E94FD0B8C0161
:1049600088E090E00E94F53BC056DF4FE881F98176
:10497000C05AD040958784879501A80161E070E016
:104980000E949A0B88E090E00E94F53BC056DF4FF2
:10499000A881B981C05AD0401F969C938E931E97D0
:1049A0009601A70162E070E00E949A0B8AE890E00D
:1049B0000E94F53B2C01FC01E75BFF4F80E090E09B
:1049C000A0E8BFE380839183A283B383148215821E
:1049D0001682178210861186128613861486158613
:1049E00016861786709610821182128213821482A4
:1049F000158216821782108611861286138683E12D
:104A000090E00E94F53B28E6DC012C93F2019183B3
:104A10008083E358FF4F118210823C961082D201AE
:104A200012961C923497108211821282138274970C
:104A3000C855DF4FF983E883C85AD04080E090E042
:104A4000A8ECB2E480839183A283B383C056DF4F86
:104A5000A881B981C05AD04051965C924E9250972D
:104A60000E94771D88E18093B800F201E080F18018
:104A700001E023E042E06BE6D7018C910E94DF0960
:104A800000E022E044E06BE1F70180810E94DF0951
:104A900022E044E06CE1D7018C910E94DF0920E024
:104AA00046E06BE6F70180810E942A0AD2010D914F
:104AB0001C91A8014F5F5F4F28EE33E065E7F801D6
:104AC00080810E942F1DD80111968C91843319F09A
:104AD0008AE499E002C086E599E00E94511DF20146
:104AE000C080D18021E047E06BE6D6018C910E9426
:104AF0002A0A6EE170E080E090E00E942C1920E02C
:104B000046E06BE6F60180810E942A0A40E76DE6E6
:104B1000D6018C910E94160966E0C6010E94640AC3
:104B200040E06DE6F60181918F010E94160928EEA2
:104B300033E0A80160E0D6018C910E942F1DF601A0
:104B4000F181C156DF4FF883CF59D04028EE33E0D2
:104B5000A80161E0D6018C910E942F1DF601F18120
:104B6000CA55DF4FF883C65AD04028EE33E0A8017B
:104B700062E0D6018C910E942F1DF60161804FE703
:104B800065E280810E94160920E045E06AE6D601D0
:104B90008C910E942A0A48E665E2F60180810E9413
:104BA000160921E041E06AE6D6018C910E942A0AAA
:104BB00064E170E080E090E00E942C19EE24E39420
:104BC00000E020E049E857E061EC71E0C6010E9496
:104BD0005A1C882309F401C388E090E00E94F53B49
:104BE000782EF92EA12CB12CF501EF5FFE4F249108
:104BF000F501EE5FFE4F04914501B3E08B0E911C71
:104C0000F501ED5FFE4F1491112391F1133090F0F7
:104C1000612F70E0872D9F2DCC54DF4F2883C45B1C
:104C2000D0400E94223D782EF92ECC54DF4F2881AF
:104C3000C45BD040A72DBF2D80E090E0A12EB12C09
:104C40008A159B0548F4F401E80FF91FEF5FFE4F4A
:104C5000E491ED930196F4CFE12CA501672D7F2D12
:104C6000C6010E945A1CA80CB91C811117C010C0A3
:104C7000E4E0AE0EB11CF401EF5FFE4FE491E130D1
:104C800039F442E368E3D6018C910E94160906C00C
:104C9000872D9F2D0E948A3C82E0A0C2B0ECAB160B
:104CA000B10408F4A1CF872D9F2D0E948A3C03E018
:104CB00023E042E06BE6F60180810E94DF0942E1D9
:104CC00068E3D6018C910E94160944E069E1F6017F
:104CD00080810E94160901E023E045E06AE1D601E7
:104CE0008C910E94DF0903E023E042E06AE1F601D3
:104CF00080810E94DF0922E044E06BE1D6018C91C3
:104D00000E94DF0943E060E7F60180810E941609F6
:104D100040E061E7D6018C910E94160920E040E056
:104D200060E0F60180810E942A0AC156DF4F0881A7
:104D3000CF59D04026E046E060E0D6018C910E9439
:104D4000DF09CA55DF4F0881C65AD04026E046E049
:104D500061E0F60180810E94DF09062D26E046E031
:104D600062E0D6018C910E94DF09A12CB12CF501E3
:104D7000EE52FF4FE491A1E8B0E0AC0FBD1FAA0DC9
:104D8000B11DEC9381E08A0DBFEFAB1ABB0AE3E0E3
:104D9000EA1568F7CD57DF4F4881C358D04050E03F
:104DA0009A012E5F3F4F90E02817390704F7E12C56
:104DB000CE57DF4F0881C258D040CF57DF4F2881F0
:104DC000C158D04061E870E06C0F7D1F6D5F7F4F70
:104DD000C6010E945A1C80E0F501EE52FF4FE4919B
:104DE000A1E8B0E0AC0FBD1FA80FB11DEC938F5F21
:104DF000FFEFAF1ABF0A843078F3CD57DF4F4881F9
:104E0000C358D04050E0BA016E5F7F4F282F30E08A
:104E1000621773070CF7E12CCE57DF4F0881C25899
:104E2000D040CF57DF4F2881C158D04061E870E0B3
:104E30006C0F7D1F6D5F7F4FC6010E945A1CC6011B
:104E40000E94980AC6010E947C0A482FBE016F5F2B
:104E50007F4FC6010E946A0A42E06FE1D6018C9141
:104E60000E9416094CE961E2F60180810E94160950
:104E700040E560E2D6018C910E94160940E062E2B2
:104E8000F60180810E941609C6010E94980A21E05D
:104E900046E06AE6D6018C910E942A0A21E047E0AA
:104EA0006AE6F60180810E942A0A21E043E06AE670
:104EB000D6018C910E942A0A80E0F501EE52FF4F44
:104EC000E491A1E8B0E0AC0FBD1FA80FB11DEC93B9
:104ED0008F5FBFEFAB1ABB0A843078F3CD57DF4F3B
:104EE0004881C358D04050E0BA016E5F7F4F282FF1
:104EF00030E0621773070CF7E12CCE57DF4F0881C3
:104F0000C258D040CF57DF4F2881C158D04061E808
:104F100070E06C0F7D1F6D5F7F4FC6010E945A1CB1
:104F200080E0F501EE52FF4FE491A1E8B0E0AC0F54
:104F3000BD1FA80FB11DEC938F5FEFEFAE1ABE0A35
:104F4000843078F3CD57DF4F4881C358D04050E0CC
:104F5000BA016E5F7F4F282F30E0621773070CF79E
:104F6000E12CCE57DF4F0881C258D040CF57DF4FDA
:104F70002881C158D04061E870E06C0F7D1F6D5FE3
:104F80007F4FC6010E945A1C80E0F501EE52FF4F90
:104F9000E491A1E8B0E0AC0FBD1FA80FB11DEC93E8
:104FA0008F5FFFEFAF1ABF0A843078F3CD57DF4F22
:104FB0004881C358D04050E0BA016E5F7F4F282F20
:104FC00030E0621773070CF7E12CCE57DF4F0881F2
:104FD000C258D040CF57DF4F2881C158D04061E838
:104FE00070E06C0F7D1F6D5F7F4FC6010E945A1CE1
:104FF000C6010E947C0A83309105D0F3482FBE0180
:105000006F5F7F4FC6010E946A0A80E0F501EE5291
:10501000FF4FE491A1E8B0E0AC0FBD1FA80FB11D98
:10502000EC938F5F2FEFA21AB20A843078F3CD573A
:10503000DF4F3881C358D040CA55DF4F3883C65A36
:10504000D040632E712CA3014E5F5F4F282F30E0BC
:1050500042175307DCF6CE57DF4F9880C258D04036
:10506000CF57DF4F8881C158D040C156DF4F88836A
:10507000CF59D040482F4F716DE6D6018C910E94D8
:105080001609692DC6010E94640AE12CF12CE61470
:10509000F70408F04CC0C70140966816790638F44A
:1050A000CA55DF4F8880C65AD0408E1802C070E1C2
:1050B000872E882D90E020E031E02919310928174A
:1050C000390714F4892C8194CE54DF4F288139811B
:1050D000C25BD0402E0D3F1D08EE13E0482D6FE659
:1050E000F60180810E942609E80CF11C980CE61458
:1050F000F70468F691100BC0C156DF4FF881CF5905
:10510000D040FF5FC156DF4FF883CF59D040C15622
:10511000DF4F4881CF59D0404F716DE6D6018C9159
:105120000E941609692DC6010E94640AB0CFC6010B
:105130000E947C0A83309105D0F3482FBE016F5F37
:105140007F4FC6010E946A0AF501EE52FF4F80E0D0
:105150009491A1E8B0E0AC0FBD1FA80FB11D9C93C6
:105160008F5F843010F43196F3CFCD57DF4F4881F5
:10517000C358D04050E0BA016E5F7F4F282F30E017
:105180006217730784F7E12CCE57DF4F0881C258AE
:10519000D040CF57DF4F2881C158D04061E870E040
:1051A0006C0F7D1F6D5F7F4FC6010E945A1C20E06F
:1051B00047E06AE6F60180810E942A0A8AE290E0CE
:1051C000D60113969C938E931297C6010E94980A5B
:1051D000C6010E949F0A80E001C081E0F201848341
:1051E0000190F081E02D80812CED30E0C356DF4F3F
:1051F00039832883CD59D040AE0143565F4F63E1D8
:105200000E94371CD201ED91FC9180812CE430E0AA
:10521000C556DF4F39832883CB59D040AE01455660
:105220005F4F65E10E94371CD201ED91FC918081B6
:105230002BEA3FEFC756DF4F39832883C959D04047
:10524000AE0147565F4F67E10E94371CD201ED91D6
:10525000FC9180812CEF36E0C956DF4F39832883DB
:10526000C759D040AE0149565F4F6AE00E94371CD3
:10527000F20184818823E1F0C655DF4FE881F9818E
:10528000CA5AD040C056DF4FA881B981C05AD04019
:10529000ED93FC930091490210914A02D8011496B3
:1052A0008D919C911597009711F40C94F93179C167
:1052B0000190F081E02D21E047E06AE680810E94C4
:1052C0002A0AF201808191810E949F0AD2011396DD
:1052D0008C93139781E012968C931297ED91FC9129
:1052E00011978281938116969C938E93159768EC03
:1052F00070E080E090E00E942C19C2010E94A71388
:10530000F201EB59FF4FCA55DF4FF983E883C65AC4
:10531000D04092012F583F4FC455DF4F3983288327
:10532000CC5AD040C2018B589F4FC255DF4F998352
:105330008883CE5AD040D201A759BF4FC055DF4F06
:10534000B983A883C05BD0403201B9E76B0E711CF2
:10535000820103591F4FCA55DF4FA881B981C65A30
:10536000D040CD90DD90ED90FC90A7019601C45502
:10537000DF4FE881F981CC5AD04060817181828110
:1053800093810E9456394B015C0120E030E0A90175
:105390000E94043B18165CF42DEC3CEC4CEC5DE3F5
:1053A000C501B4010E94043B18165CF065CF2DECDA
:1053B0003CEC4CEC5DEBC501B4010E94983787FFD3
:1053C0005BCF20E030E0A901C701B6010E94983709
:1053D000882309F451CFC855DF4FE881F981C85AB5
:1053E000D040C082D182E282F382C055DF4FE88193
:1053F000F981C05BD04080819181A281B381C25587
:10540000DF4FE881F981CE5AD04080839183A28317
:10541000B383F80180819181A281B381F3018083FC
:105420009183A283B383A7019601C701B6010E94AD
:105430007F3B882319F088E691E01AC046015701A6
:10544000E894B7F82FEF3FEF4FE75FE7C501B401EE
:105450000E947F3B81110FC02FEF3FEF4FE75FE7C7
:10546000C501B4010E94983718162CF48CE691E01F
:105470000E94D91B88C02FEF3FEF4FE75FE4C701C1
:10548000B6010E94043B18161CF480E791E0F0CFAF
:105490002FEF3FEF4FE75FECC701B6010E9498374F
:1054A00087FDF3CF20E030E0A901C701B6010E94DB
:1054B000983787FF07C08DE20E94EB1BF7FAF09444
:1054C000F7F8F0946AE0B62E60E070E080E09FE3C9
:1054D00020E030E040E251E40E94353ABA94B11045
:1054E000F7CF9B01AC01C701B6010E9457396B0190
:1054F0007C010E94AE3A4B015C010E949D379B01EA
:10550000AC01C701B6010E9456396B017C014AE02B
:10551000C501B4010E94F61B8EE20E94EB1BFBE06A
:10552000C156DF4FF883CF59D040C156DF4F288195
:10553000CF59D0402150C156DF4F2883CF59D0409A
:10554000222309F120E030E040E251E4C701B60136
:105550000E94FE376B017C010E94AE3A4B01A12CE8
:10556000B12C4AE0C501B4010E94F61BC501B4018B
:105570000E949D379B01AC01C701B6010E945639BC
:105580006B017C01D2CF84E791E00E94D91B68ECCB
:1055900070E080E090E00E942C19C2010E94A713E5
:1055A000DACE60E00E94B418D80114968D919C91D7
:1055B00015978230910509F407C7039709F019C7B9
:1055C0000C9484348091490290914A020E942D1FCC
:1055D0007C0100913D0210913E028230910561F103
:1055E0008430910509F447C0019709F002C7D8013A
:1055F00013961C921E92129718968D919C91199752
:105600001B969C938E931A971996FC92EE9218977C
:105610001C968D919C911D97FC01F182E0820E9465
:10562000670BD8011E968D919C911F97FC01F1820A
:10563000E0820E94670BDDC6D80113961C921E9271
:10564000129718968D919C9119971B969C938E9307
:105650001A9719961C921E92189762E070E01C9699
:105660008D919C911D970E94740B62E070E0F8018F
:1056700086859785C4C1C80175C1F5E0EF16F104B0
:1056800031F026E0E216F10409F467C0B2C6E090FA
:105690003D02F0903E02D70118968D919C9119978A
:1056A0001B969C938E931A9786E090E019969C9394
:1056B0008E93189750960D911C915197F801828105
:1056C000882319F0C8010E94C310F801EB59FF4F5D
:1056D00080809180A280B3807C9680829182A28219
:1056E000B382CC55DF4F28813981C45AD040B901EB
:1056F000330F880B990B0E949F379B01AC01C501AA
:10570000B4010E9457394B015C01680135E8C30EB2
:10571000D11CD6016D937D938D939C93139720E0BC
:1057200030E044E353E40E94043B18166CF420E09C
:1057300030E044EB53E4C501B4010E945639F60150
:105740006083718382839383F801E757FF4F81E081
:105750008083C7010E94780E4CC6E0903D02F09015
:105760003E02D70118968D919C9119971B969C9398
:105770008E931A9785E090E019969C938E931897D4
:1057800050960D911C915197F8018281882319F050
:10579000C8010E94C310F801EB59FF4F808091802F
:1057A000A280B3807C9680829182A282B382CC5503
:1057B000DF4F28813981C45AD040B901330F880B9B
:1057C000990B0E949F379B01AC01C501B4010E9457
:1057D00056394B015C01680135E8C30ED11CD60176
:1057E0006D937D938D939C93139720E030E044E379
:1057F00053EC0E94983787FF0DC020E030E044EB67
:1058000053E4C501B4010E945739F60160837183E6
:1058100082839383F801E757FF4F81E08083C701BC
:105820000E945C0EE6C5F1E0EF16F10429F022E0DB
:10583000E216F10481F1DDC500913D0210913E02B6
:10584000D8011A962D913C911B9718968D919C9199
:1058500019972817390721F013961C921E92129758
:10586000F80184859585EE24E394F12CDC01ED921A
:10587000FC920E94670BF80186859785DC01ED920A
:10588000FC920E94670BF80180859185938782873F
:1058900083E090E02BC000913D0210913E02D801C0
:1058A0001A962D913C911B9718968D919C91199762
:1058B0002817390721F013961C921E92129762E066
:1058C00070E0F801848595850E94740B62E070E0B9
:1058D000D8011E968D919C911F970E94740BF80120
:1058E000808591859387828784E090E09187808787
:1058F00080C5F5E0EF16F10459F026E0E216F10458
:1059000069F480913D0290913E020E945C0E06C0B7
:1059100080913D0290913E020E94780ECC55DF4F5F
:1059200088819981C45AD040892B19F483E090E092
:1059300006C0CC55DF4F88819981C45AD04028EEEB
:1059400033E0829FB001839F700D929F700D1124F0
:10595000072E000C880B990B0E942C1980913D0298
:1059600090913E020E94940E44C5E0913D02F09158
:105970003E02F582E4823DC50091490210914A023F
:10598000D80114964D915C91159761E070E01296E4
:105990008D919C9113970E94850CF8014681578147
:1059A00062E070E0828193810E94850CD80112969A
:1059B0008D919C9113970E94DB0B7C0188E090E015
:1059C0000E94F53B9093460280934502F70192872F
:1059D0008187D80116962D913C91179714964D9179
:1059E0005C91159760914302709144026F5F7F4F05
:1059F00070934402609343020E949A0BFAC40E947F
:105A0000740BF7C40091490210914A02D801149610
:105A10004D915C91159761E070E012968D919C918B
:105A200013970E94850CF801828193810E94DB0B01
:105A30007C0186E090E00E94F53B6C01D801149651
:105A40001C9161E0812F0E94B418F6011083D0925E
:105A50004202C0924102D7011A96DC92CE92199767
:105A6000C8C4E0914902F0914A02828193810E9468
:105A7000DB0BFC0101851285109342020093410269
:105A80003BE4C32ED12C43E9E42E42E0F42E61E046
:105A9000D8018C910E948418C7010197F1F760E04A
:105AA000F80180810E948418C7010197F1F7F1E0A5
:105AB000CF1AD10861F79DC4E0914902F0914A02E2
:105AC000828193810E94DB0BDC011996CD90DC90E2
:105AD0001A97D0924202C092410228EE33E0CC5590
